:020000040800F2
:1000000008040020C1010008270C0008CB0B0008E1
:10001000250C000809020008790D00080000000006
:100020000000000000000000000000004B0C000871
:100030000B02000800000000490C00084D0C0008ED
:10004000DB010008DB010008DB010008DB01000820
:10005000DB010008DB010008DB010008DB01000810
:10006000DB010008DB010008DB010008DB01000800
:10007000DB010008DB010008DB010008DB010008F0
:10008000DB010008DB010008DB010008DB010008E0
:10009000DB010008DB010008DB010008DB010008D0
:1000A000DB010008DB010008DB010008DB010008C0
:1000B000DB010008DB010008DB010008DB010008B0
:1000C000DB010008DB010008DB010008DB010008A0
:1000D000DB010008DB010008DB010008DB01000890
:1000E000DB010008DB010008DB010008DB01000880
:1000F000DB010008DB010008DB010008DB01000870
:10010000DB010008DB010008DB010008DB0100085F
:10011000DB010008DB010008DB010008DB0100084F
:10012000DB010008DB010008DB010008DB0100083F
:10013000DB010008DB010008DB010008DB0100082F
:10014000DB010008DB010008DB010008DB0100081F
:10015000DB010008DB010008DB010008DB0100080F
:10016000DB010008DB010008DB010008DB010008FF
:10017000DB010008DB010008DB01000800000000D3
:10018000DB010008DB010008DB010008DB010008DF
:10019000DB010008DB010008DB010008DB010008CF
:1001A000DB010008DB010008DB010008DFF80CD0F0
:1001B00000F018F8004800479D0D000808040020D2
:1001C0000648804706480047FEE7FEE7FEE7FEE7F1
:1001D000FEE7FEE7FEE7FEE7FEE7FEE7250D000887
:1001E000AD010008064C074D06E0E06840F0010351
:1001F00094E8070098471034AC42F6D3FFF7DAFFD3
:10020000E80D0008080E0008FEE7704731B500F061
:1002100005F9044600F002F90099001B8842F9D361
:1002200038BD00002DE9F84F0022DFF8A491DFF877
:10023000A08109F108094FF0010E4FF00F0C09F1F0
:10024000040A0EFA02F60B683340B34271D14C68CF
:10025000022C01D0122C11D1D40800EB84073D6A86
:100260005407E40E0CFA04FB25EA0B05D1F810B094
:100270000BFA04FB4BEA050BC7F820B007685400E3
:100280000325A540AF4391F804B00BF0030B0BFA24
:1002900004FB4BEA070BC0F800B04F68012F05D0F4
:1002A000022F03D0112F01D0122F11D18768AF4335
:1002B000D1F80CB00BFA04FB4BEA070BC0F808B0FE
:1002C0004768B7430E79C6F3001696403E43466032
:1002D000C668AE438D68A5403543C5604C68E400F0
:1002E0006FD53C4C256845F480452560246804F4AE
:1002F00080440094384C22F003052544D5F8087852
:100300009407260F0CFA06F4A743344CA04201D1FF
:1003100000242EE0324CA04201D1012429E0314CCE
:10032000A04201D1022424E02F4CA04202D1032498
:100330001FE046E02D4CA04201D1042419E02C4CD2
:10034000A04201D1052414E02A4CA04201D1062488
:100350000FE0294CA04201D107240AE0274CA0421B
:1003600001D1082405E0264CA04201D1092400E077
:100370000A24B4403C43C5F80848D8F800409C43E0
:100380004D68ED0300D51C43C8F80040104D2D1DED
:100390002C689C434E68B60300D51C432C60D9F8EA
:1003A00000409C434D68ED0200D51C43C9F8004055
:1003B000DAF800409C434D68AD0200D51C43CAF8F2
:1003C0000040521C102AFFF43CAFBDE8F88F00003B
:1003D000003C01404438024000300140000002402F
:1003E0000004024000080240000C024000100240DD
:1003F0000014024000180240001C0240002002408D
:100400000024024042694A4042617047002A01D0FC
:1004100081617047090481617047000001480068EC
:10042000704700000400002002480168491C016078
:10043000704700000400002010B50B48016841F42B
:1004400000710160016841F480610160016841F45C
:1004500080710160032000F069F8002000F006F8C8
:1004600000F018F8002010BD003C024010B5044612
:1004700007484FF47A720068B0FBF2F000F08DFB91
:1004800000222146501E00F031F8002010BD00006F
:100490000000002010B5032000F048F800221146AB
:1004A0006FF00B0000F022F8002211466FF00A00F6
:1004B00000F01CF8002211466FF0090000F016F859
:1004C00000221146501F00F011F800221146101FA3
:1004D00000F00CF800221146901E00F007F80022F0
:1004E000BDE810401146501EAFF30080F0B40D4639
:1004F0000D4B1B68C3F30223C3F10704042C00D97E
:100500000424191D072901D2002300E0DB1E012667
:1005100006FA04F1491E294099409E40761E164075
:100520003143F0BC00F080BB0CED00E000F00701AF
:10053000054A10684FF6FF03184040EA01200349BE
:1005400008431060704700000CED00E00000FA0561
:100550002DE9F8431E48016841F0805101600068B0
:1005600000F0805000900127380490FAA0F0DFF8E6
:100570006480B0FA80F048F82070FFF74FFF05461E
:100580004FF47A76144C07E0FFF748FF401BB04267
:1005900002D90320BDE8F8836068C003F4D54FF4A6
:1005A000003090FAA0F0B0FA80F048F82070FFF721
:1005B00035FF054606E0FFF731FF401BB04201D989
:1005C0000320E7E760688003F5D50020E2E700003C
:1005D0004038024000000E42007000402DE9F04714
:1005E00004460E46DFF86891D9F8000006F0FF08CF
:1005F00000F00F00B0420AD289F80080D9F800005C
:1006000000F00F00B04202D00120BDE8F087207852
:10061000504F800705D53868A16820F0F0000843E6
:1006200038602078C0075BD04A49606808390128E3
:1006300008D002280BD0032809D0096889070BD4F9
:100640000120E2E70968890306D40120DDE7096893
:10065000890101D40120D8E7396821F00301014361
:100660003960FFF7DBFE0546606841F2883A0128F1
:100670000BD0022816D0032821D02DE0FFF7CEFEA4
:10068000401B504501D90320BFE73868C0F3810003
:100690000128F3D124E0FFF7C1FE401B504501D9EA
:1006A0000320B2E73868C0F381000228F3D117E0D5
:1006B000FFF7B4FE401B504501D90320A5E7386879
:1006C000C0F381000328F3D10AE0FFF7A7FE401B27
:1006D000504501D9032098E7386810F00C0FF4D189
:1006E000D9F8000000F00F00B04209D989F8008065
:1006F000D9F8000000F00F00B04201D0012084E7DB
:100700002078400705D53868E16820F4E0500843B8
:1007100038602078000706D53868216920F46040E9
:1007200040EAC100386000F021F83968F02292FAFE
:10073000A2F201F0F001B2FA82F2D140064A515C15
:10074000C840064908600020FFF790FE00205CE7E3
:10075000003C024008380240D80D0008000000208C
:1007600001480068704700000000002030B51D48B7
:10077000006810F00C011C481AD01C4C042916D03B
:10078000082915D1174A121F116801F03F0113689B
:100790005D0247F6C0730CD5B4FBF1F01168194047
:1007A00093FAA3F3B3FA83F3D94048430BE020460E
:1007B00030BDB0FBF1F01168194093FAA3F3B3FA1E
:1007C00083F3D940484311684FF4403292FAA2F2C1
:1007D00001F44031B2FA82F2D140491C4900B0FB29
:1007E000F1F030BD083802400024F40040787D016B
:1007F0002DE9F84F0446DFF874832078A8F1040748
:10080000C007A7F1040552D0D8F80000C0F381005A
:10081000012808D0D8F80000C0F3810002280AD1CE
:100820003868400207D52868800340D5606878BBE7
:100830000120BDE8F88F6068B0F5803F10D0B0F5BA
:10084000A02F12D0286820F480302860286820F477
:10085000802028606068E0B1FFF7E0FD064614E004
:10086000286840F480302860F4E7286840F480204D
:100870002860286840F480302860EBE7FFF7CEFD61
:10088000801B642801D90320D3E728688003F5D5AD
:100890000DE0FFF7C3FD064606E0FFF7BFFD801B36
:1008A000642801D90320C4E728688003F5D42078A0
:1008B000DFF8BC9280074FF0000A52D5D8F800004C
:1008C0004FF0F80B10F00C0F08D0D8F80000C0F370
:1008D0008100022816D13868400213D428688007A6
:1008E00004D5E068012801D00120A2E728689BFA1E
:1008F000ABF22169B2FA82F220F0F800914008438D
:1009000028602EE0E068E0B10120C9F80000FFF7A0
:1009100085FD064606E0FFF781FD801B022801D910
:10092000032086E728688007F5D528689BFAABF294
:100930002169B2FA82F220F0F80091400843286061
:100940000FE0C9F800A0FFF769FD064606E0FFF7D3
:1009500065FD801B022801D903206AE7286880070B
:10096000F5D42078000729D5DFF800B28148616905
:100970000BF16C0B89B101210160FFF74FFD0646B9
:1009800006E0FFF74BFD801B022801D9032050E74A
:10099000DBF800008007F4D510E0C0F800A0FFF7F6
:1009A0003DFD064606E0FFF739FD801B022801D910
:1009B00003203EE7DBF800008007F4D420784007EE
:1009C0006ED56A483830016841F080510160006896
:1009D00000F080500090DFF8A0B1DBF8000040F498
:1009E0008070CBF80000FFF719FD064606E0FFF720
:1009F00015FD801B022801D903201AE7DBF800004F
:100A0000C005F4D5DFF864B1A0680BF1680B0128CC
:100A100013D0052818D0DBF8000020F00100CBF837
:100A20000000DBF8000020F00400CBF80000A06814
:100A300028B3FFF7F3FC06461CE0DBF8000040F0AB
:100A40000100CBF80000F2E7DBF8000040F0040002
:100A5000CBF80000DBF8000040F00100CBF800000C
:100A6000E5E7FFF7DBFC811B41F28830814201D9C9
:100A70000320DEE6DBF800008007F2D510E0FFF788
:100A8000CDFC064608E0FFF7C9FC811B41F2883027
:100A9000814201D90320CCE6DBF800008007F2D4C4
:100AA000A069E8B3D8F80010C1F3810102295AD037
:100AB000022805D0C9F860A0FFF7B0FC04464DE05D
:100AC000C9F860A0FFF7AAFC064606E0FFF7A6FCFF
:100AD000801B022801D90320ABE628688001F5D4E9
:100AE000D4E90701084347F6C07292FAA2F2616A9C
:100AF000B2FA82F29140A26A4FF0FF3303EB520246
:100B00004FF4403393FAA3F3B3FA83F39A401143BB
:100B10004FF0706292FAA2F20843B2FA82F200E059
:100B20001FE0E16A9140084338600120C9F8600085
:100B3000FFF774FC044606E0FFF770FC001B022878
:100B400001D9032075E628688001F5D509E0FFF793
:100B500065FC001B022801D903206AE62868800191
:100B6000F5D4002065E6012063E600000838024065
:100B700000004742800E4742007000404FF0E021E5
:100B8000042804D0086920F004000861704708694F
:100B900040F0040008617047704710B5401EB0F186
:100BA000807F01D3012010BD4FF0E02460610F2150
:100BB000601700F039F80020A061072020610020B4
:100BC00010BD10B5FFF7E8FF10BDFEE770B586B0A9
:100BD00000251248016841F080010160016801F0C0
:100BE00080010091016841F040010160006800F05F
:100BF000400000900A4E4FF4C04400222146304687
:100C0000FFF704FC0194012102910395049501A9C9
:100C10003046FFF707FB06B070BD000030380240D9
:100C200000180240FEE770470907090E002806DA9F
:100C300000F00F0000F1E02080F8141D704700F173
:100C4000E02080F8001470477047704710B5FFF738
:100C5000EBFBBDE81040FFF7B4BF000030B593B028
:100C600000252A48016841F080510160006800F0C9
:100C7000805001902648016841F4404101600068BD
:100C800000F4404001900224079401200A901020B3
:100C90000B900D940E9508200F90B4201090119495
:100CA0000420129007A8FFF7A3FD18B1A32119A0F3
:100CB00000F063F8FFF74CFC18B1AA2115A000F072
:100CC0005CF80F200290039404954FF4A050059017
:100CD0004FF480500690052102A8FFF77FFC18B161
:100CE000B8210CA000F049F8FFF73AFD4FF47A71F3
:100CF000B0FBF1F0FFF751FF0420FFF73FFF0022A8
:100D00001146501EFFF7F2FB13B030BD40380240D1
:100D1000007000402E2E2F5372632F6D61696E2E6E
:100D2000630000001048016841F4700101600F4841
:100D3000016841F0010101600C4A00210832116094
:100D400002680B4B1A400260031D0A4A1A600268CF
:100D500022F48022026005480C30016002495806E6
:100D6000803908607047000088ED00E000380240DC
:100D7000FFFFF6FE10300024FEE7FEE702E008C8A1
:100D8000121F08C1002AFAD170477047002001E005
:100D900001C1121F002AFBD170470000FFF74CFB76
:100DA000FFF75CFFFFF712FF4FF48046094D4FF449
:100DB000FA74771031462846FFF724FB2046FFF7E8
:100DC00025FA39462846FFF71DFB2046FFF71EFA95
:100DD000F0E70000001802400000000001020304D8
:100DE0000102030406070809080E0008000000209D
:100DF000080000007C0D0008100E0008080000200C
:100E0000000400008C0D00080024F4000000000025
:04000005080001AD41
:00000001FF
